{
    "_format": "hh-sol-artifact-1",
    "contractName": "Crowdfunding",
    "sourceName": "contracts/Crowdfunding.sol",
    "abi": [
        {
            "anonymous": false,
            "inputs": [
                {
                    "indexed": false,
                    "internalType": "uint256",
                    "name": "campaignId",
                    "type": "uint256"
                },
                {
                    "indexed": false,
                    "internalType": "address",
                    "name": "owner",
                    "type": "address"
                },
                {
                    "indexed": false,
                    "internalType": "string",
                    "name": "title",
                    "type": "string"
                },
                {
                    "indexed": false,
                    "internalType": "uint256",
                    "name": "goal",
                    "type": "uint256"
                },
                {
                    "indexed": false,
                    "internalType": "uint256",
                    "name": "deadline",
                    "type": "uint256"
                }
            ],
            "name": "CampaignCreated",
            "type": "event"
        },
        {
            "anonymous": false,
            "inputs": [
                {
                    "indexed": false,
                    "internalType": "uint256",
                    "name": "campaignId",
                    "type": "uint256"
                },
                {
                    "indexed": false,
                    "internalType": "address",
                    "name": "contributor",
                    "type": "address"
                },
                {
                    "indexed": false,
                    "internalType": "uint256",
                    "name": "amount",
                    "type": "uint256"
                }
            ],
            "name": "Funded",
            "type": "event"
        },
        {
            "anonymous": false,
            "inputs": [
                {
                    "indexed": false,
                    "internalType": "uint256",
                    "name": "campaignId",
                    "type": "uint256"
                },
                {
                    "indexed": false,
                    "internalType": "address",
                    "name": "contributor",
                    "type": "address"
                },
                {
                    "indexed": false,
                    "internalType": "uint256",
                    "name": "amount",
                    "type": "uint256"
                }
            ],
            "name": "Refunded",
            "type": "event"
        },
        {
            "anonymous": false,
            "inputs": [
                {
                    "indexed": false,
                    "internalType": "uint256",
                    "name": "campaignId",
                    "type": "uint256"
                },
                {
                    "indexed": false,
                    "internalType": "address",
                    "name": "owner",
                    "type": "address"
                },
                {
                    "indexed": false,
                    "internalType": "uint256",
                    "name": "amount",
                    "type": "uint256"
                }
            ],
            "name": "Withdrawn",
            "type": "event"
        },
        {
            "inputs": [],
            "name": "campaignCount",
            "outputs": [
                {
                    "internalType": "uint256",
                    "name": "",
                    "type": "uint256"
                }
            ],
            "stateMutability": "view",
            "type": "function"
        },
        {
            "inputs": [
                {
                    "internalType": "uint256",
                    "name": "",
                    "type": "uint256"
                }
            ],
            "name": "campaigns",
            "outputs": [
                {
                    "internalType": "address",
                    "name": "owner",
                    "type": "address"
                },
                {
                    "internalType": "string",
                    "name": "title",
                    "type": "string"
                },
                {
                    "internalType": "string",
                    "name": "description",
                    "type": "string"
                },
                {
                    "internalType": "uint256",
                    "name": "goal",
                    "type": "uint256"
                },
                {
                    "internalType": "uint256",
                    "name": "deadline",
                    "type": "uint256"
                },
                {
                    "internalType": "uint256",
                    "name": "amountCollected",
                    "type": "uint256"
                },
                {
                    "internalType": "bool",
                    "name": "completed",
                    "type": "bool"
                },
                {
                    "internalType": "bool",
                    "name": "goalReached",
                    "type": "bool"
                }
            ],
            "stateMutability": "view",
            "type": "function"
        },
        {
            "inputs": [
                {
                    "internalType": "uint256",
                    "name": "_campaignId",
                    "type": "uint256"
                }
            ],
            "name": "claimRefund",
            "outputs": [],
            "stateMutability": "nonpayable",
            "type": "function"
        },
        {
            "inputs": [
                {
                    "internalType": "uint256",
                    "name": "",
                    "type": "uint256"
                },
                {
                    "internalType": "address",
                    "name": "",
                    "type": "address"
                }
            ],
            "name": "contributions",
            "outputs": [
                {
                    "internalType": "uint256",
                    "name": "",
                    "type": "uint256"
                }
            ],
            "stateMutability": "view",
            "type": "function"
        },
        {
            "inputs": [
                {
                    "internalType": "string",
                    "name": "_title",
                    "type": "string"
                },
                {
                    "internalType": "string",
                    "name": "_description",
                    "type": "string"
                },
                {
                    "internalType": "uint256",
                    "name": "_goal",
                    "type": "uint256"
                },
                {
                    "internalType": "uint256",
                    "name": "_deadline",
                    "type": "uint256"
                }
            ],
            "name": "createCampaign",
            "outputs": [],
            "stateMutability": "nonpayable",
            "type": "function"
        },
        {
            "inputs": [
                {
                    "internalType": "uint256",
                    "name": "_campaignId",
                    "type": "uint256"
                }
            ],
            "name": "fundCampaign",
            "outputs": [],
            "stateMutability": "payable",
            "type": "function"
        },
        {
            "inputs": [
                {
                    "internalType": "uint256",
                    "name": "_campaignId",
                    "type": "uint256"
                }
            ],
            "name": "getCampaignDetails",
            "outputs": [
                {
                    "internalType": "address",
                    "name": "owner",
                    "type": "address"
                },
                {
                    "internalType": "string",
                    "name": "title",
                    "type": "string"
                },
                {
                    "internalType": "string",
                    "name": "description",
                    "type": "string"
                },
                {
                    "internalType": "uint256",
                    "name": "goal",
                    "type": "uint256"
                },
                {
                    "internalType": "uint256",
                    "name": "deadline",
                    "type": "uint256"
                },
                {
                    "internalType": "uint256",
                    "name": "amountCollected",
                    "type": "uint256"
                },
                {
                    "internalType": "bool",
                    "name": "completed",
                    "type": "bool"
                },
                {
                    "internalType": "bool",
                    "name": "goalReached",
                    "type": "bool"
                }
            ],
            "stateMutability": "view",
            "type": "function"
        },
        {
            "inputs": [
                {
                    "internalType": "uint256",
                    "name": "_campaignId",
                    "type": "uint256"
                },
                {
                    "internalType": "address",
                    "name": "_contributor",
                    "type": "address"
                }
            ],
            "name": "getContribution",
            "outputs": [
                {
                    "internalType": "uint256",
                    "name": "",
                    "type": "uint256"
                }
            ],
            "stateMutability": "view",
            "type": "function"
        },
        {
            "inputs": [
                {
                    "internalType": "uint256",
                    "name": "_campaignId",
                    "type": "uint256"
                }
            ],
            "name": "withdrawFunds",
            "outputs": [],
            "stateMutability": "nonpayable",
            "type": "function"
        }
    ],
    "bytecode": "0x608060405234801561001057600080fd5b50611c16806100206000396000f3fe6080604052600436106100865760003560e01c80637274e30d116100595780637274e30d1461015e57806392bd38bc14610189578063a318f269146101a5578063d993de62146101ce578063e081dbf91461021257610086565b8063141961bc1461008b578063155dd5ee146100cf5780633d891f59146100f85780635b7baf6414610135575b600080fd5b34801561009757600080fd5b506100b260048036038101906100ad9190610ec7565b61024f565b6040516100c6989796959493929190610fef565b60405180910390f35b3480156100db57600080fd5b506100f660048036038101906100f19190610ec7565b6103e1565b005b34801561010457600080fd5b5061011f600480360381019061011a91906110a7565b61061b565b60405161012c91906110e7565b60405180910390f35b34801561014157600080fd5b5061015c60048036038101906101579190610ec7565b610640565b005b34801561016a57600080fd5b50610173610864565b60405161018091906110e7565b60405180910390f35b6101a3600480360381019061019e9190610ec7565b61086a565b005b3480156101b157600080fd5b506101cc60048036038101906101c79190611237565b610a49565b005b3480156101da57600080fd5b506101f560048036038101906101f09190610ec7565b610c6c565b604051610209989796959493929190610fef565b60405180910390f35b34801561021e57600080fd5b50610239600480360381019061023491906110a7565b610e22565b60405161024691906110e7565b60405180910390f35b60006020528060005260406000206000915090508060000160009054906101000a900473ffffffffffffffffffffffffffffffffffffffff169080600101805461029890611305565b80601f01602080910402602001604051908101604052809291908181526020018280546102c490611305565b80156103115780601f106102e657610100808354040283529160200191610311565b820191906000526020600020905b8154815290600101906020018083116102f457829003601f168201915b50505050509080600201805461032690611305565b80601f016020809104026020016040519081016040528092919081815260200182805461035290611305565b801561039f5780601f106103745761010080835404028352916020019161039f565b820191906000526020600020905b81548152906001019060200180831161038257829003601f168201915b5050505050908060030154908060040154908060050154908060060160009054906101000a900460ff16908060060160019054906101000a900460ff16905088565b600080600083815260200190815260200160002090508060000160009054906101000a900473ffffffffffffffffffffffffffffffffffffffff1673ffffffffffffffffffffffffffffffffffffffff163373ffffffffffffffffffffffffffffffffffffffff1614610489576040517f08c379a000000000000000000000000000000000000000000000000000000000815260040161048090611382565b60405180910390fd5b8060030154816005015410156104d4576040517f08c379a00000000000000000000000000000000000000000000000000000000081526004016104cb906113ee565b60405180910390fd5b8060060160009054906101000a900460ff1615610526576040517f08c379a000000000000000000000000000000000000000000000000000000000815260040161051d9061145a565b60405180910390fd5b60018160060160006101000a81548160ff0219169083151502179055506000816005015490508160000160009054906101000a900473ffffffffffffffffffffffffffffffffffffffff1673ffffffffffffffffffffffffffffffffffffffff166108fc829081150290604051600060405180830381858888f193505050501580156105b6573d6000803e3d6000fd5b507fcf7d23a3cbe4e8b36ff82fd1b05b1b17373dc7804b4ebbd6e2356716ef202372838360000160009054906101000a900473ffffffffffffffffffffffffffffffffffffffff168360405161060e9392919061147a565b60405180910390a1505050565b6001602052816000526040600020602052806000526040600020600091509150505481565b60008060008381526020019081526020016000209050806004015442101561069d576040517f08c379a0000000000000000000000000000000000000000000000000000000008152600401610694906114fd565b60405180910390fd5b8060060160019054906101000a900460ff16156106ef576040517f08c379a00000000000000000000000000000000000000000000000000000000081526004016106e69061158f565b60405180910390fd5b60006001600084815260200190815260200160002060003373ffffffffffffffffffffffffffffffffffffffff1673ffffffffffffffffffffffffffffffffffffffff16815260200190815260200160002054905060008111610787576040517f08c379a000000000000000000000000000000000000000000000000000000000815260040161077e906115fb565b60405180910390fd5b60006001600085815260200190815260200160002060003373ffffffffffffffffffffffffffffffffffffffff1673ffffffffffffffffffffffffffffffffffffffff168152602001908152602001600020819055503373ffffffffffffffffffffffffffffffffffffffff166108fc829081150290604051600060405180830381858888f19350505050158015610823573d6000803e3d6000fd5b507f7ca5472b7ea78c2c0141c5a12ee6d170cf4ce8ed06be3d22c8252ddfc7a6a2c48333836040516108579392919061147a565b60405180910390a1505050565b60025481565b60008060008381526020019081526020016000209050806004015442106108c6576040517f08c379a00000000000000000000000000000000000000000000000000000000081526004016108bd90611667565b60405180910390fd5b60003411610909576040517f08c379a0000000000000000000000000000000000000000000000000000000008152600401610900906116f9565b60405180910390fd5b8060060160009054906101000a900460ff161561095b576040517f08c379a000000000000000000000000000000000000000000000000000000000815260040161095290611765565b60405180910390fd5b3481600501600082825461096f91906117b4565b92505081905550346001600084815260200190815260200160002060003373ffffffffffffffffffffffffffffffffffffffff1673ffffffffffffffffffffffffffffffffffffffff16815260200190815260200160002060008282546109d691906117b4565b925050819055508060030154816005015410610a0a5760018160060160016101000a81548160ff0219169083151502179055505b7f38c48552690c96ec2872092ac1db6c19fb59f5a8c5b49bbf41ed4886d0ca6926823334604051610a3d9392919061147a565b60405180910390a15050565b428111610a8b576040517f08c379a0000000000000000000000000000000000000000000000000000000008152600401610a8290611834565b60405180910390fd5b60008211610ace576040517f08c379a0000000000000000000000000000000000000000000000000000000008152600401610ac5906118a0565b60405180910390fd5b6040518061010001604052803373ffffffffffffffffffffffffffffffffffffffff1681526020018581526020018481526020018381526020018281526020016000815260200160001515815260200160001515815250600080600254815260200190815260200160002060008201518160000160006101000a81548173ffffffffffffffffffffffffffffffffffffffff021916908373ffffffffffffffffffffffffffffffffffffffff1602179055506020820151816001019081610b959190611a6c565b506040820151816002019081610bab9190611a6c565b50606082015181600301556080820151816004015560a0820151816005015560c08201518160060160006101000a81548160ff02191690831515021790555060e08201518160060160016101000a81548160ff0219169083151502179055509050507fdc26653af5b99b2da33e2ad69ee6600d9aeccc82b034501db4338309615ca23860025433868585604051610c46959493929190611b3e565b60405180910390a160026000815480929190610c6190611b98565b919050555050505050565b60006060806000806000806000806000808b815260200190815260200160002090508060000160009054906101000a900473ffffffffffffffffffffffffffffffffffffffff1681600101826002018360030154846004015485600501548660060160009054906101000a900460ff168760060160019054906101000a900460ff16868054610cfa90611305565b80601f0160208091040260200160405190810160405280929190818152602001828054610d2690611305565b8015610d735780601f10610d4857610100808354040283529160200191610d73565b820191906000526020600020905b815481529060010190602001808311610d5657829003601f168201915b50505050509650858054610d8690611305565b80601f0160208091040260200160405190810160405280929190818152602001828054610db290611305565b8015610dff5780601f10610dd457610100808354040283529160200191610dff565b820191906000526020600020905b815481529060010190602001808311610de257829003601f168201915b505050505095509850985098509850985098509850985050919395975091939597565b60006001600084815260200190815260200160002060008373ffffffffffffffffffffffffffffffffffffffff1673ffffffffffffffffffffffffffffffffffffffff16815260200190815260200160002054905092915050565b6000604051905090565b600080fd5b600080fd5b6000819050919050565b610ea481610e91565b8114610eaf57600080fd5b50565b600081359050610ec181610e9b565b92915050565b600060208284031215610edd57610edc610e87565b5b6000610eeb84828501610eb2565b91505092915050565b600073ffffffffffffffffffffffffffffffffffffffff82169050919050565b6000610f1f82610ef4565b9050919050565b610f2f81610f14565b82525050565b600081519050919050565b600082825260208201905092915050565b60005b83811015610f6f578082015181840152602081019050610f54565b60008484015250505050565b6000601f19601f8301169050919050565b6000610f9782610f35565b610fa18185610f40565b9350610fb1818560208601610f51565b610fba81610f7b565b840191505092915050565b610fce81610e91565b82525050565b60008115159050919050565b610fe981610fd4565b82525050565b600061010082019050611005600083018b610f26565b8181036020830152611017818a610f8c565b9050818103604083015261102b8189610f8c565b905061103a6060830188610fc5565b6110476080830187610fc5565b61105460a0830186610fc5565b61106160c0830185610fe0565b61106e60e0830184610fe0565b9998505050505050505050565b61108481610f14565b811461108f57600080fd5b50565b6000813590506110a18161107b565b92915050565b600080604083850312156110be576110bd610e87565b5b60006110cc85828601610eb2565b92505060206110dd85828601611092565b9150509250929050565b60006020820190506110fc6000830184610fc5565b92915050565b600080fd5b600080fd5b7f4e487b7100000000000000000000000000000000000000000000000000000000600052604160045260246000fd5b61114482610f7b565b810181811067ffffffffffffffff821117156111635761116261110c565b5b80604052505050565b6000611176610e7d565b9050611182828261113b565b919050565b600067ffffffffffffffff8211156111a2576111a161110c565b5b6111ab82610f7b565b9050602081019050919050565b82818337600083830152505050565b60006111da6111d584611187565b61116c565b9050828152602081018484840111156111f6576111f5611107565b5b6112018482856111b8565b509392505050565b600082601f83011261121e5761121d611102565b5b813561122e8482602086016111c7565b91505092915050565b6000806000806080858703121561125157611250610e87565b5b600085013567ffffffffffffffff81111561126f5761126e610e8c565b5b61127b87828801611209565b945050602085013567ffffffffffffffff81111561129c5761129b610e8c565b5b6112a887828801611209565b93505060406112b987828801610eb2565b92505060606112ca87828801610eb2565b91505092959194509250565b7f4e487b7100000000000000000000000000000000000000000000000000000000600052602260045260246000fd5b6000600282049050600182168061131d57607f821691505b6020821081036113305761132f6112d6565b5b50919050565b7f4f6e6c79206f776e65722063616e207769746864726177000000000000000000600082015250565b600061136c601783610f40565b915061137782611336565b602082019050919050565b6000602082019050818103600083015261139b8161135f565b9050919050565b7f476f616c206e6f74207265616368656400000000000000000000000000000000600082015250565b60006113d8601083610f40565b91506113e3826113a2565b602082019050919050565b60006020820190508181036000830152611407816113cb565b9050919050565b7f46756e647320616c72656164792077697468647261776e000000000000000000600082015250565b6000611444601783610f40565b915061144f8261140e565b602082019050919050565b6000602082019050818103600083015261147381611437565b9050919050565b600060608201905061148f6000830186610fc5565b61149c6020830185610f26565b6114a96040830184610fc5565b949350505050565b7f43616d706169676e206e6f7420656e6465640000000000000000000000000000600082015250565b60006114e7601283610f40565b91506114f2826114b1565b602082019050919050565b60006020820190508181036000830152611516816114da565b9050919050565b7f476f616c2077617320726561636865642c206e6f20726566756e64732061766160008201527f696c61626c650000000000000000000000000000000000000000000000000000602082015250565b6000611579602683610f40565b91506115848261151d565b604082019050919050565b600060208201905081810360008301526115a88161156c565b9050919050565b7f4e6f20636f6e747269627574696f6e20666f756e640000000000000000000000600082015250565b60006115e5601583610f40565b91506115f0826115af565b602082019050919050565b60006020820190508181036000830152611614816115d8565b9050919050565b7f43616d706169676e206578706972656400000000000000000000000000000000600082015250565b6000611651601083610f40565b915061165c8261161b565b602082019050919050565b6000602082019050818103600083015261168081611644565b9050919050565b7f436f6e747269627574696f6e206d75737420626520677265617465722074686160008201527f6e207a65726f0000000000000000000000000000000000000000000000000000602082015250565b60006116e3602683610f40565b91506116ee82611687565b604082019050919050565b60006020820190508181036000830152611712816116d6565b9050919050565b7f43616d706169676e20697320636f6d706c657465640000000000000000000000600082015250565b600061174f601583610f40565b915061175a82611719565b602082019050919050565b6000602082019050818103600083015261177e81611742565b9050919050565b7f4e487b7100000000000000000000000000000000000000000000000000000000600052601160045260246000fd5b60006117bf82610e91565b91506117ca83610e91565b92508282019050808211156117e2576117e1611785565b5b92915050565b7f496e76616c696420646561646c696e6500000000000000000000000000000000600082015250565b600061181e601083610f40565b9150611829826117e8565b602082019050919050565b6000602082019050818103600083015261184d81611811565b9050919050565b7f476f616c206d7573742062652067726561746572207468616e207a65726f0000600082015250565b600061188a601e83610f40565b915061189582611854565b602082019050919050565b600060208201905081810360008301526118b98161187d565b9050919050565b60008190508160005260206000209050919050565b60006020601f8301049050919050565b600082821b905092915050565b6000600883026119227fffffffffffffffffffffffffffffffffffffffffffffffffffffffffffffffff826118e5565b61192c86836118e5565b95508019841693508086168417925050509392505050565b6000819050919050565b600061196961196461195f84610e91565b611944565b610e91565b9050919050565b6000819050919050565b6119838361194e565b61199761198f82611970565b8484546118f2565b825550505050565b600090565b6119ac61199f565b6119b781848461197a565b505050565b5b818110156119db576119d06000826119a4565b6001810190506119bd565b5050565b601f821115611a20576119f1816118c0565b6119fa846118d5565b81016020851015611a09578190505b611a1d611a15856118d5565b8301826119bc565b50505b505050565b600082821c905092915050565b6000611a4360001984600802611a25565b1980831691505092915050565b6000611a5c8383611a32565b9150826002028217905092915050565b611a7582610f35565b67ffffffffffffffff811115611a8e57611a8d61110c565b5b611a988254611305565b611aa38282856119df565b600060209050601f831160018114611ad65760008415611ac4578287015190505b611ace8582611a50565b865550611b36565b601f198416611ae4866118c0565b60005b82811015611b0c57848901518255600182019150602085019450602081019050611ae7565b86831015611b295784890151611b25601f891682611a32565b8355505b6001600288020188555050505b505050505050565b600060a082019050611b536000830188610fc5565b611b606020830187610f26565b8181036040830152611b728186610f8c565b9050611b816060830185610fc5565b611b8e6080830184610fc5565b9695505050505050565b6000611ba382610e91565b91507fffffffffffffffffffffffffffffffffffffffffffffffffffffffffffffffff8203611bd557611bd4611785565b5b60018201905091905056fea2646970667358221220179fece234fcbaf739c812650fbffbad7a98e8d07f35d97cb71bd041cccde59264736f6c63430008120033",
    "linkReferences": {},
    "deployedLinkReferences": {}
}